:020000040800F2
:1000000000200020A9410008F1410008F14100084A
:10001000F1410008F1410008F14100080000000032
:10002000000000000000000000000000F141000896
:10003000F141000800000000F14100086F320008A3
:10004000F1410008F1410008F1410008F1410008C8
:10005000F1410008F14100085140000857400008F4
:100060005D4000086340000869400008F141000855
:10007000F1410008F1410008F1410008F141000898
:10008000F1410008F1410008F141000800000000C2
:100090000000000000000000000000006F400008A9
:1000A000AD49000811490008C14900083549000858
:1000B000494900085D49000871490008011000081D
:1000C0000D1000081910000825100008F141000863
:1000D000F1410008013F0008193F0008353F0008C2
:1000E00085400008F1410008F141000800000000CF
:1000F0000000000000000000000000000000000000
:1001000000000000000000000000000000000000EF
:10011000000000000000000085490008994900081F
:1001200000000000000000000000000000000000CF
:1001300000000000000000000000000000000000BF
:1001400000000000000000000000000000000000AF
:10015000000000000000000000000000000000009F
:10016000000000000000000000000000000000008F
:10017000000000000000000000000000000000007F
:10018000000000000000000000000000000000006F
:10019000000000000000000000000000000000005F
:1001A000000000000000000000000000000000004F
:1001B000000000000000000000000000000000003F
:1001C0000000000000000000000000005FF808F1DF
:1001D000034613F8012B002AFBD1181A0138704787
:1001E00010B5054C237833B9044B13B10448AFF371
:1001F00000800123237010BD880000200000000053
:100200001054000808B5034B1BB103490348AFF372
:10021000008008BD000000008C0000201054000881
:10022000C82370B5C0E90033142301250026C0E9B6
:1002300002334FF050130446C0E904352946C0E9A3
:1002400007668561C662A0F84A60C62003F0D2FF47
:100250002946C72003F0CEFF2946C52003F0CAFF78
:100260002946092003F0C6FF29460A2003F0C2FFF1
:100270002946082003F0BEFF2946072003F0BAFFF5
:100280003146C62004F026F83146C72004F022F893
:100290002946C52004F01EF83146092004F01AF85A
:1002A00031460A2004F016F82946082004F012F816
:1002B0002946072004F00EF80C4A0D4BD16E04F1CC
:1002C0004C00C3F88010926E6021C3F8842000F0C7
:1002D000B5FE284604F03CF804F14D00612100F021
:1002E000ADFE2846BDE8704004F032B8205B00083F
:1002F000000100204FF0FF3370B50E4615468AB05E
:10030000C0E910331C49044601A804F0BBFC314687
:1003100004A804F0F6FC294604A804F081FD051E9B
:1003200021DB2B46002204A907A804F07DFD07A9C4
:1003300001A804F0F0FC07A804F05FFC01A804F099
:1003400099FD069B6A1C206404A907A804F06CFDB3
:1003500007A904A804F0DFFC07A804F04EFC04A8D9
:1003600004F088FD606404A804F047FC01A804F0D0
:1003700044FC0AB070BD00BF7554000830B5044697
:100380008B688DB0013B0022684604F04DFD694644
:1003900009A804F0B6FC09A97C222046FFF7AAFFB1
:1003A00009A804F02AFC216C31B1D12923D8C8292D
:1003B00007D86539082911D9684604F01EFC0DB02C
:1003C00030BDCA39072963D8DFE811F07300910006
:1003D000A200E800F9003A014B0163010829EBD8BB
:1003E000DFE811F029004E006F0080009B00AF0095
:1003F00018012901440140F28E33994200F05C81DA
:1004000040F28F33994200F0698140F28D33994276
:10041000D2D1636C0A22236303A804F095FC03A9DC
:1004200006A804F06EFC7C2106A804F0E1FC0A2278
:100430000546216B81E00A22652103A804F084FCB3
:1004400003A906A804F05DFC7C2106A804F0D0FCFA
:100450000A220546216809A804F088FC09A9284653
:1004600004F0BAFC0146B44804F02EFB09A804F0DD
:10047000C4FB06A804F0C1FB03A804F0BEFB9BE785
:10048000636C0A22092B98BF0A2366212360D4E7F4
:100490000A22C92103A804F057FC03A906A804F006
:1004A00030FC7C2106A804F0A3FC0A220546616802
:1004B000D1E7636C0A22092B98BF0A23CA21636023
:1004C000E8E70A22672103A804F03EFC03A906A876
:1004D00004F017FC7C2106A804F08AFC0A220546D9
:1004E000A168B8E7636C0A226821A360EBE70A22DF
:1004F000CB2103A804F028FC03A906A804F001FC02
:100500007C2106A804F074FC0A220546E168A2E7F3
:10051000636C0A22CC21E360EBE70A22692103A87D
:1005200004F012FC03A906A804F0EBFB7C2106A84A
:1005300004F05EFC0A220546218A09A804F004FCA6
:100540008CE7636C0A2223826A2103A804F0FCFB77
:1005500003A906A804F0D5FB7C2106A804F048FCFA
:1005600005460A22218A09A804F0EEFB09A92846BB
:1005700004F032FC0146704804F0A6FA09A804F021
:100580003CFB06A804F039FB03A804F036FB00226C
:10059000218A04F14C0000F059FD0DE70A22CD211B
:1005A00003A804F0D1FB03A906A804F0AAFB7C2150
:1005B00006A804F01DFC0A220546618ABDE7636CAB
:1005C0000A226382CE2103A804F0BEFB03A906A879
:1005D00004F097FB7C2106A804F00AFC05460A22D9
:1005E000618A09A804F0B0FB09A9284604F0F4FBCD
:1005F0000146514804F068FA09A804F0FEFA06A87A
:1006000004F0FBFA03A804F0F8FA0022618A04F16E
:100610004D00C0E70A226B2103A804F095FB03A953
:1006200006A804F06EFB7C2106A804F0E1FB0A2278
:100630000546616981E7636C0A226C216361EBE71F
:100640000A22CF2103A804F07FFB03A906A804F027
:1006500058FB7C2106A804F0CBFB0A220546A169C1
:100660006BE7636C0A22D021A361EBE7636C0A227B
:10067000E3616D2103A804F067FB03A906A804F059
:1006800040FB7C2106A804F0B3FB0A220546E16981
:1006900053E7636C0A222362D12103A804F054FBC0
:1006A00003A906A804F02DFB7C2106A804F0A0FBFA
:1006B0000A220546216A40E7636C0A22E36203A826
:1006C00004F042FB03A906A804F01BFB7C2106A84A
:1006D00004F08EFB0A220546E16A2EE71749164808
:1006E00004F0D9F90A22E16A134804F038FA1449EF
:1006F000114804F0D0F90A22216B0F4804F02FFAB8
:1007000010490D4804F0C7F90A22E1690A4804F0CB
:1007100026FA0D49084804F0BEF90A22216A064863
:1007200004F01DFA0949044804F0B5F90A22218AA7
:10073000014804F016FA3FE61C0300202854000884
:10074000315400083E5400084D5400085C54000821
:100750001FB504461C4901A804F094FA01A92046DB
:10076000FFF70CFE01A804F048FA184901A804F0AC
:1007700089FA01A92046FFF701FE01A804F03DFA1D
:10078000134901A804F07EFA01A92046FFF7F6FDFF
:1007900001A804F032FA0F4901A804F073FA01A984
:1007A0002046FFF7EBFD01A804F027FA0A4901A84B
:1007B00004F068FA204601A9FFF7E0FD01A804F063
:1007C0001CFA04B010BD00BF6C5400087654000839
:1007D000805400088B5400089354000810B5094C4D
:1007E000062220464FF4165103F064FF2046064CC3
:1007F000064904F073F92046FFF712FD2046FFF783
:10080000A7FF10BD1C030020A40000209B5400087B
:1008100010B5084C04F14C0000F00EFC04F14D0042
:1008200000F00AFC04F150000349BDE8104004F058
:1008300029BA00BFA400002075540008014804F044
:10084000DCB900BFF40000202DE9F0430446184F46
:10085000DFF8609085B000F15006154803F086FD82
:10086000002822DD384603F073FF05465FFA80F862
:100870004146304604F0A3FA4146384604F00FF9E9
:100880000A2DEAD1A36D012BE7D9314601A804F066
:1008900038FA01A92046FFF771FD01A804F0ADF96F
:1008A0004946304604F03FFAD7E705B0BDE8F0838B
:1008B0001C0300207554000838B50446FFF7C4FF38
:1008C000E36A012B11DC0121C62003F003FD0121A5
:1008D000C72003F0FFFC0121092003F0FBFCBDE869
:1008E000384001210A2003F0F5BC03F02FFDA36B73
:1008F000A268C31A934224BF01236362E36BE268D8
:10090000A0EB030328BFA063934224BF0123A3628B
:10091000636A28BFE063012B606322D1C62061694E
:1009200003F0D8FC6169C720B1FA81F1490903F0ED
:10093000D1FC214A214D12682368B2FBF5F2023B3B
:100940001F49534348684A68121A9342FBDC01214D
:10095000C62003F0BFFC0121C72003F0BBFC00232D
:100960006362A36A012B22D10920A16903F0B2FCC2
:10097000A1690A20B1FA81F1490903F0ABFC0E4AE2
:100980000E4D12686368B2FBF5F2023B0C4953430B
:1009900048684A68121A9342FBDC0121092003F0DF
:1009A00099FC01210A2003F095FC0023A36203F0C7
:1009B000CDFC606338BD00BF2000002040420F0026
:1009C000001000E008B50248FFF776FF08BD00BF41
:1009D000A400002000207047827D407D101A7047DF
:1009E0000346427D817D914281BF0169885C01326D
:1009F0005A7598BF4FF0FF307047827D437D9A4211
:100A000086BF0269D05C4FF0FF307047836DD3F82A
:100A1000BC201AB100215977997710477047000020
:100A200000214FF47A72C0E90112054A0260054ABA
:100A3000D16DC0F88010926DC0F88420704700BF5F
:100A400040550008205B000838B500230446C0E983
:100A50000433C0E90633C0F8BC304B00DBB280F889
:100A60002030C067481E4142414104F1240584F80A
:100A7000BA1084F8BB2028464FF48042084900F0A1
:100A80000BF994F8BA304BB92846064900F045FAFC
:100A90002846BDE83840044900F038BA38BD00BFE8
:100AA000A08601000D0A0008F90A00080A46012183
:100AB000FFF7CABF002343774FF480734900C17525
:100AC000C383704738B5037D05468B420C4609D277
:100AD000202938BF20240069214604F053FB10B1BF
:100AE00028612C7538BD2146BDE83840014802F028
:100AF000A3BE00BFAB54000870B5846D0546D4F8A2
:100B0000C030866EEBB1627DA37D9A4219D3314627
:100B10002046FFF7D7FF236923B940F2A711094800
:100B200002F08AFE3246206905F1740104F072FA7F
:100B30000023A67563753046D4F8C030BDE8704018
:100B4000184770BDC354000838B5037F05468B4273
:100B50000C4609D2202938BF20248069214604F0A0
:100B600011FB10B1A8612C7738BD2146BDE8384093
:100B7000014802F061BE00BFAB54000813B5C37F4B
:100B800004468DF80710A3B1817F0131FFF7DCFF28
:100B9000A06918B90123636002B010BD637F9DF89E
:100BA0000720C254637F01200133DBB26377A37750
:100BB000F2E701220DF10701243000F02DF9B0FA1F
:100BC00080F04009E8E770B5C37F04460E4615463D
:100BD000B3B1817F1144FFF7B7FFA36923B90122A5
:100BE0001D466260284670BD607F2A461844314623
:100BF00004F010FA637F2B44DBB26377A377F1E74D
:100C000092B2243000F008F9002818BF0025E9E767
:100C10000346806918B100211A7F04F009BA7047B1
:100C200038B50446C9B94FF42A03636594F8BA305D
:100C3000012B15D1A37FA269E17D04F1240000F00E
:100C400025F9042828BF042045B22046FFF7E0FF1D
:100C500000236377E383E8B238BD4FF02A43E4E72B
:100C60000425F8E70121FFF7DBBF002110B504469A
:100C700041758175006910B1227D04F0D9F9002316
:100C800020466377A377FFF7C3FF10BD0148FFF746
:100C9000C7BE00BF000100202DE9F7430D461646F0
:100CA0001F460446002800F083805249C06D02F0C0
:100CB00092FD51498046206E02F08DFD0146B8F14B
:100CC000000F75D0002873D0404602F0ABFD2060C5
:100CD00000286DD0494B04F1040898426BD103F50C
:100CE000DE33DA6942F40012DA61DA6902F40012E2
:100CF0000092009A1A6942F400121A611A6922F4E9
:100D000000121A6142F21F03A4F864303C4BC3F88E
:100D100000803949206E02F03FFDE06D354902F058
:100D20003BFD384823688542636006D936488542D2
:100D300003D93648854288BF00204FF0000994F857
:100D4000973030494A468D428CBF4FF480454D461E
:100D50004B450CBF4B4640230221C4E90839A06033
:100D6000C4E9035794F96400C4E90569C4F81C9008
:100D700084F8419000F00AFA94F9640000F038FA1F
:100D80004A46022194F9650000F000FA94F96500E2
:100D900000F02EFA404600F03BFB20B140F20F314C
:100DA0001B4802F049FD0023A366022384F8953016
:100DB00003B0BDE8F083174B9842AAD103F5DC33AA
:100DC000DA6942F48002DA61DA6902F4800201929F
:100DD000019A1A6942F480021A611A6922F48002A7
:100DE0001A6142F22123A4F86430054BC3F8048051
:100DF0008FE700BF4057000810570008005400401C
:100E0000C4010020A0860100801A060040420F00A5
:100E10006455000800580040202A30B514D800233B
:100E20009CB2A24207D890F894301A44D2B280F80B
:100E30009420002030BD90F89440CD5C1C440444C4
:100E400084F874500133EBE70120F3E710B5642315
:100E50000446043000F084FB02280AD0032801D0A5
:100E600068B910BD94F84130202B0CBF022005203A
:100E7000F7E794F84130202B18BF0620F1E794F8EB
:100E80004130202B0CBF02200420EAE72DE9F3417A
:100E900005460C4690461F4600F060F906463FB9ED
:100EA00001222146284602B0BDE8F041FFF7CEBF3F
:100EB0002B6B04352146009342463B46284600F002
:100EC00001FC044650B1002002B0BDE8F08100F002
:100ED00045F9841B284601F02CFB30B9284601F067
:100EE00025FB202801D0632CF1D9284601F021FBF5
:100EF000632C07D8820605D4430705D40028E2D026
:100F00000420E1E70520DFE70320DDE720B119B188
:100F1000C166043000F0B6BC704720B119B101675A
:100F2000043000F0AFBC70472DE9F04190F89130EB
:100F30000446012B0D461746A0F1040609D1436E65
:100F40003BB1836E30469847022384F891300023EA
:100F50006366E3689F4220D18DB9E36E84F89150B7
:100F60001BB1304684F890509847204694F8902062
:100F700004F170012023BDE8F04100F00DBC002316
:100F80000122636684F89120616E204674313144F9
:100F90000423BDE8F04100F03ABCBDE8F08110B593
:100FA00090F891300446012B04D1436E13B1836E47
:100FB00004389847022384F8913000232046636662
:100FC000BDE8104000F05EBC436E1F2BDEBF436ED9
:100FD0000133436690F89130012BDAB205D1416EAE
:100FE00004230144703100F012BC7047002380F8E4
:100FF0009030704790F892300BB900F043BC7047C6
:10100000014B186800F0B8BDC4010020014B1868FE
:1010100001F0EEB9C4010020014B586800F0ACBDEE
:10102000C4010020014B586801F0E2B9C40100205E
:101030000368C9B21B68184770470000017000219F
:101040000148FFF733BD00BF0001002038B5154649
:101050000C4601780C48FFF72DFD95B160210A4838
:10106000FFF7E6FF21090848FFF7E2FF21010648E4
:1010700001F0F001FFF7DCFFBDE838400248FFF760
:10108000F1BD4021EBE700BF0001002003460A4903
:1010900010B508680344EFF30882934205D90C2287
:1010A0004FF0FF30054B1A6010BD054A054C121B6E
:1010B0009342F4D20B60F7E70000002068040020A0
:1010C0000020002000040000FEE700001622024B72
:1010D0004FF0FF301A60704768040020012070470D
:1010E0007047000038B50E4B054618784FF47A73F8
:1010F000B3FBF0F30B4A1068B0FBF3F000F09AF882
:10110000044658B90F2D09D8024629464FF0FF3042
:1011100000F03CF82046044B1D6038BD0120FCE780
:1011200004000020200000200800002008B5032053
:1011300000F01AF80020FFF7D5FFFFF7D1FF0020DD
:1011400008BD0000034A044B11681B780B44136070
:10115000704700BFCC01002004000020014B18683C
:10116000704700BFCC01002007490302CA6803F49E
:10117000E06322F4E0621204120C134343F0BF63F5
:1011800043F40033CB60704700ED00E0164B30B500
:10119000DC68C4F30224C4F10703251D042B28BF17
:1011A0000423062D4FF0FF3598BF002405FA03F302
:1011B00088BF033C21EA0303A34005FA04F422EAB2
:1011C0000402002843EA0203ACBF00F16040074A72
:1011D0004FEA0313DBB2ABBF00F5614000F00F0034
:1011E00080F80033135430BD00ED00E014ED00E052
:1011F000002808DB0123420900F01F0003FA00F079
:10120000014B43F82200704700E100E000280DDBAD
:101210000122430900F01F0002FA00F0044A2033C3
:1012200042F82300BFF34F8FBFF36F8F704700BFAB
:1012300000E100E00138B0F1807F0BD24FF0E023F5
:10124000F021054A586182F8231000200722986196
:101250001A6170470120704700ED00E0002809DBAB
:101260000122430900F01F0002FA00F0024A603335
:1012700042F82300704700BF00E100E0704708B566
:10128000FFF7FCFF08BD10B5044640B1022303710F
:1012900002F05EFE002020616071207110BD01200F
:1012A000FCE7012210B5046801F01001236802FA7E
:1012B00001F123EA010121600271002010BD90F8C4
:1012C0002130022B06D004238363002380F82030D2
:1012D0000120704703681A6822F00E021A601A682B
:1012E00022F001021A600123D0E90F218B405360E4
:1012F0004FF48073038400207047000008B590F815
:101300002130022B03D004238363012008BD03682E
:101310001A6822F00E021A601A6822F001021A609E
:10132000174A93421CD0143293421BD0143293427A
:101330001AD0143293421AD0143293421AD0143273
:1013400093420CBF4FF480134FF080730D4A5360EB
:101350004FF480730384436B7BB198470020D5E73B
:101360000123F3E71023F1E74FF48073EEE74FF426
:101370008053EBE74FF48033E8E71846C6E700BF39
:10138000080002400000024090F821007047000071
:10139000044A08B55169014202D0506102F042FE90
:1013A00008BD00BF000401402DE9F84606460F467F
:1013B00091461D464FEA114A3368BAF1010F0CBF3E
:1013C0005C699C6927EA0404A4B2B4FA84F4640951
:1013D000A14501D0002017E06A1CEED0FFF7BEFE49
:1013E000089BC01AA84201D8002DE5D10023202275
:1013F0000120336386F83D2086F83E30326C86F853
:101400003C3042F020023264BDE8F88670470000AC
:1014100070B5044608B9012070BD90F83D3003F066
:10142000FF021BB980F83C20FFF7F0FF242384F86B
:101430003D3023681A6822F001021A601A6842F4EB
:1014400000421A601A6822F400421A6001F0C4FADD
:101450003F4A6368934294BF3E4A3F4A90428CBFE2
:1014600000220122002AD6D1394E3C49B342B0FBBA
:10147000F1F188BF4FF49676226800F1FF3055688D
:1014800025F03F0545EA010582BF71434FF47A76A6
:10149000B1FBF6F15560156A013125F03F0529438E
:1014A0001162D1692A4D21F44F41AB4221F0FF0175
:1014B00032D85B00B0FBF3F0431C40F6FC700342F3
:1014C00042D0C3F30B030B43D3611168D4E9073057
:1014D00021F0C00103430B4313609168D4E9030377
:1014E00021F40341034321F0FF010B439360D168D2
:1014F000D4E9053021F0FF0103430B43D3601368A7
:10150000002043F0010313602023206484F83D3061
:10151000206384F83E007FE7A56855B903EB4303D9
:10152000B0FBF3F30133C3F30B037BB143F400438C
:10153000C9E719256B43B0FBF3F30133C3F30B0386
:1015400023B143F44043BEE70423BCE70123BAE7D9
:10155000A08601007F841E00FF083D0040420F006E
:101560002DE9F04F044685B01E460F469146FFF721
:10157000F5FD94F83D300546202B03D0022005B040
:10158000BDE8F08F00901923012220464C49FFF757
:101590000BFF0028F2D194F83C30012BEED0012350
:1015A00084F83C3023684FF0010A1A68DFF810B164
:1015B000D20758BF1A6807F0FE075CBF42F001026D
:1015C0001A601A6822F400621A60242384F83D30FD
:1015D00000232364A3F58033E36222684FF00111F6
:1015E0001368204643F4807313603346002200954D
:1015F000FFF7DAFE236838B11B68DB0502D54FF42C
:10160000007323640320BAE71F61FFF7A7FD4FF0C3
:10161000A008054623685A695B69C2F34002C3F318
:10162000802394F83D10A02901D013431DD04FF022
:101630002008236884F83D805A6912F0020F1A6866
:1016400042F400721A6025D0002203925A692046A3
:1016500003929B6901220393039B19491923009567
:10166000FFF7A2FE88B1012089E7FFF777FD401B55
:10167000B04200D80EB984F83D8023685A695B698E
:10168000C2F34002C3F38023CBE784F83D8084F8A3
:101690003C0074E76FF4806259465A612046192372
:1016A00001220095FFF780FE0028DCD10AF1010A33
:1016B000CA4592D384F83D8084F83C00D3E700BF4C
:1016C00002001000F7B500240094019490F83D400A
:1016D000089D202C02D0022003B0F0BD04682668CB
:1016E000B60503D4082D01D0012D1ED146F2A8174E
:1016F000284E3668B6FBF7F619277E430196019E01
:10170000013E0196019E6EB92023066380F83D30AC
:1017100080F83E60036C80F83C6043F02003036473
:101720000120D9E7A669B707E9D490F83C60012EFB
:10173000D1D02668F6075EBF266846F0010626600F
:10174000266826F400662660212680F83D60102673
:1017500080F83E60002606644385438DC56241647F
:101760000385036B42620093009B112B05D1B5F5F5
:101770002A0F02D0B5F12A4F03D1236843F48073B6
:101780002360002380F83C306268184642F4E0622F
:101790006260A1E72000002037B590F83D4004F0DA
:1017A0002804282C31D100292DD0002A2BD090F8E4
:1017B0003C40012C29D005682C68E4075EBF2C68EA
:1017C00044F001042C602C6824F400642C6029246B
:1017D00080F83D40202480F83E4000240464428587
:1017E000428DC36201946B6941620193AB690285CA
:1017F00080F83C4020460193019B6B6843F4E06312
:101800006B6003B030BD0120FBE70220F9E737B57C
:1018100090F83D4004F02804282C31D100292DD027
:10182000002A2BD090F83C40012C29D005682C6868
:10183000E4075EBF2C6844F001042C602C6824F49B
:1018400000642C602A2480F83D40202480F83E402B
:10185000002404644285428DC36201946B69416235
:101860000193AB69028580F83C4020460193019BBF
:101870006B6843F4E0636B6003B030BD0120FBE7AD
:101880000220F9E790F83D30202B14D1282380F86E
:101890003D30036800201A68D2075EBF1A6842F024
:1018A00001021A601A6842F480621A605A6842F4AF
:1018B00040725A6070470220704770477047704707
:1018C00090F83D2008B5036DD2B283B9C36C0268AD
:1018D000012B836C05D1DBB21361036D0233036509
:1018E00008BDC3F307231361036D0133F7E7036DED
:1018F000012B03D1836C0268DBB2F4E7036D022B8A
:10190000EED1222A05D10268136843F48073136074
:10191000EAE7438D9BB263B1212A0AD1436A026888
:1019200013F8011B11614362438D013B9BB2438558
:10193000D6E7438D9BB2002BD2D1212AD0D10268A9
:10194000516821F4E0615160116841F40071116047
:101950002022036380F83D2080F83E30FFF7AFFF80
:10196000BEE7704770470000002337B546F2A81164
:1019700001932C4B406A1B6890F83D20B3FBF1F3B8
:1019800023214B4301930368D2B2019941BB016CFF
:1019900041F020010164446B0CB10021A162816B14
:1019A00009B100258D621D6825F480651D60002544
:1019B000458504B1656301B14D63196821F00101EA
:1019C000196090F83D10602911D1202380F83D3036
:1019D000002380F83E300364FFF7C4FF03B030BD3E
:1019E00001990139019119688905CED4D3E702F034
:1019F0002802282A0ED1196841F0010119601968DE
:101A000041F4806119600023036380F83D20FFF7F3
:101A1000F1FAE3E7202380F83D30002380F83E30E0
:101A2000F5E700BF2000002010B590F83D2090F8A9
:101A30003E300446102BD9B2D2B2036801D04029FF
:101A400013D1222A11D1196821F400611960596853
:101A500011F4006106D1602A1EBF202284F83D20C7
:101A600084F83E100022226307E002F028012829B2
:101A7000EDD10022226384F83D105A6812F400620E
:101A80004FD05A68606B22F400625A6090F821309F
:101A9000012B374B2BD04363FFF730FC50B122684A
:101AA000606B136823F001031360202384F83D303A
:101AB000436B9847236C19071FBF2268536823F4B0
:101AC000E063536094F83D30226CDBB252070DD5D1
:101AD000282B0BD1274B2022E362002320462363CF
:101AE00084F83D2084F83E30FFF759FA10BDA06B12
:101AF0004363FFF703FC0028DCD023685A695106D2
:101B000005D51A69636A1A70636A013363622268D1
:101B1000A06B136823F001031360202384F83D3089
:101B2000C6E794F83D10602915D1202184F83D10B6
:101B300022645A69520605D51A69636A1A70636A83
:101B40000133636222682046136823F001031360A7
:101B5000FFF708FFAEE75A69500605D51A69636AB0
:101B60001A70636A013363622046FFF743FAA1E704
:101B7000691900080000FFFFF0B5044603688FB044
:101B80005A68C66A90F83E0094F83D101028C5B215
:101B9000C9B202D0402D40F0CA829F69586910F046
:101BA000010F07D1B6F52A0F02D0B6F12A4F51D155
:101BB0000FB0F0BD96054DD5E26AB2F52A0F0CD1F3
:101BC0000122E26294F83E20402A11D1226D52B9DE
:101BD000626C02F0FE021A61EAE7E26AB2F12A4F91
:101BE000F0D10822EDE7626C42F00102D2B2F2E7D6
:101BF0002269B2F5804F1AD194F83D20212A626CF7
:101C000011D102F0FE021A61626B0AB1926A2AB91E
:101C1000A26B002ACCD0926A002AC9D05A6842F43A
:101C200000625A60C4E742F00102D2B2EBE7226DD3
:101C300032B9626CD21102F0060242F0F002CAE739
:101C4000226D012AB4D1626CD21102F0060242F078
:101C5000F102C0E7060703D5960501D5626CE4E7FB
:101C6000860740F1E680960540F1E38094F83E1047
:101C7000E26A256B94F83D00C9B2222840F0D18079
:101C8000206D40B9402906D100905A6900929B69A5
:101C90000093009B8CE7216D89B92069B0F5404F16
:101CA0000DD101915A6901929A690192019A1A68BB
:101CB00042F480721A60236D0133236578E7618DE9
:101CC00089B251B902915A6902929A690292029AB2
:101CD0001A6842F400721A6019E0618D89B2012914
:101CE00049D112F5803F1BD11A6822F480621A6034
:101CF0005A6812F400620CD01A6822F480621A60EA
:101D0000002203925A6903929B690393039B002369
:101D1000D3E704925A6904929A690492049AD7E725
:101D2000082A1CD0202A1AD0122D0DD1012A16D132
:101D30001A6822F480621A60002205925A6905929C
:101D40009B690593059BE2E7102AF1D8964921FA91
:101D500002F2D607ECD51A6842F48062EBE71A6803
:101D600022F480621A60002206925A6906929A69E9
:101D70000692069AACE7618D89B2022933D1102A06
:101D800005D88949D140C94311F0010120D0196813
:101D900041F400611960002107915969079199691F
:101DA00007910799196821F48061196059680D0538
:101DB000ADD512F5803F06D0511E1F29A7D87B4A0A
:101DC000CA40D007A3D55A6842F480525A609EE7B1
:101DD000186840F480601860089159690891996901
:101DE00008910899E2E7196841F48061196059681F
:101DF00009050ED512F5803F07D0013A1F2A08D8F1
:101E00006A4921FA02F2D20703D55A6842F4805295
:101E10005A60002209925A6909929B690993099BA9
:101E200075E700220A925A690A929B690A930A9BF3
:101E3000BEE67F0740F18D805E6836053FF5B8AE9F
:101E40000706C0F380063ED550053CD5002E3DD197
:101E500094F83D20258D94F83E10D2B2E06AC9B2C4
:101E6000C5B9212A18D1082858D0202856D010F5F5
:101E7000803F53D05A6822F4E0625A6011232363F2
:101E8000002384F83E302023204684F83D30FFF7BD
:101E900014FD8DE6212A05D040297FF489AE222A3F
:101EA0007FF486AE628D92B21AB95A6822F48062CB
:101EB000B7E694F83E20402A16D120460FB0BDE880
:101EC000F040FFF7FDBC002E3FF472AE97057FF5A2
:101ED0006FAE212939D1E16A94F83D20212A7FF49F
:101EE00067AE628D92B24AB1626A12F8011B196143
:101EF0006262638D013B9BB2638559E608290DD070
:101F000020290BD011F5803F08D0596821F4E061F9
:101F100059601123236384F83E20B4E75A682046B1
:101F200022F4E0625A601A6842F400721A600023D8
:101F30002022236384F83D2094F83E2084F83E302C
:101F4000402AA4D1FFF7BBFC32E6402D7FF430AE2F
:101F5000B3E759680E053FF52BAE4506C0F3800187
:101F60007BD5500579D500297AD194F83D20222AD5
:101F70007FF41EAE628D92B2032A19D91A69636A80
:101F80001A70636A01336362638D013B9BB26385A0
:101F9000638D9BB2032B7FF40BAE2268536823F44E
:101FA0008063536004E600BF14000100818000805C
:101FB000E06A02283FF4FCAD012A3FF6F9AD0B912F
:101FC00046F2A811724A1268B2FBF1F202EB8202E9
:101FD0000B920B9A013A0B920B99D1B9226C2046C5
:101FE00042F0200222645A6822F4E0625A601A69C0
:101FF000636A1A70636A01336362638D013B9BB24B
:102000006385202384F83D3084F83E10FEF7F2FF0C
:10201000CEE51A6812F40072DBD1196821F48061F0
:102020001960596821F4E06159601969636A19708F
:10203000636A01336362638D013B9BB26385202336
:1020400084F83D3094F83E3084F83E20402B68D12F
:1020500022632046FFF785FCAAE500293FF4A8ADDE
:1020600092057FF5A5ADE26A608D616A80B20428B1
:1020700009D15A6822F480625A601B690B70636A46
:102080000133636235E7608D80B203280CD1586854
:10209000042A20F480605860EFD0022AEDD01A683C
:1020A00022F480621A60E8E7608D80B20228E4D1F1
:1020B000012A01D0102A28D11A6822F480621A60FD
:1020C0001B690B70626A531C6362638D013B9BB298
:1020D000638523681B695370636A226801336362F6
:1020E000638D013B9BB26385536823F44073536057
:1020F000202384F83D3094F83E30402B4FF000030D
:1021000084F83E300DD12363A3E7042A01D0022ACC
:1021100003D11A6842F48062D1E71A6842F400726F
:10212000CDE7122320462363FFF7C8FB40E5206C70
:1021300008B30025586987072CD596052AD5226C47
:1021400002B19D6994F83D2002F02802282A15D199
:102150005A686FEA950122F480625A6000232F06C4
:10216000204654BFA289228B01F0010184F83C3043
:10217000FEF7DAFE1CE59D695869DCE700220C9247
:1021800059690C919B6984F83C200C930C9B0FE5DA
:1021900020000020C60640F1B180950540F1AE80D8
:1021A00094F83D505A68EDB222F4E0625A60002281
:1021B0000D925A690D921A6842F001021A600D9A46
:1021C0001A6822F480621A605A68100520D505F05A
:1021D000F702222A4AD1A06B0268526892B2628545
:1021E000628D92B21AB1226C42F0040222645A68E3
:1021F00022F400625A60FFF7C7F8012808D0A06BEC
:10220000794B4363FFF77AF810B1A06B436B9847A3
:10221000638D9BB213B323685A69510709D51A69B4
:10222000636A1A70636A01336362638D013B9BB218
:10223000638523685A69520609D51A69636A1A7058
:10224000636A01336362638D013B9BB26385638D77
:102250009BB21BB1236C43F004032364236C13B3C0
:1022600020460FB0BDE8F040FFF7DEBB606B0268B0
:10227000526892B26285628D92B21AB1226C42F0BB
:10228000040222645A6822F400625A60FFF77CF864
:102290000128BDD0606B544B4363FFF72FF8002833
:1022A000B6D0606BB2E72A2D06D1236328232046DF
:1022B00084F83D30FEF788FE94F83D30282B0CD191
:1022C0004A4B2022E36200232046236384F83D200A
:1022D00084F83E30FEF763FE6AE4236B222B02D0C3
:1022E000222D7FF465AC00232022236384F83D2057
:1022F00084F83E302046FEF767FE59E401F0F7010E
:102300002129C0F3800535D1070627D5560525D5E7
:102310003DBB94F83D00628DC0B292B2002A3FF4FA
:1023200047AC626A12F8015B1D616262628D013A1C
:1023300092B26285628D92B2002A7FF439AC29286C
:102340007FF436AC5A68204622F480625A60282313
:10235000216384F83D30FEF749FE29E4002D3FF467
:1023600027AC95057FF524AC628D92B2002A3FF42C
:102370001FACB9E5400627D5510525D53DBB94F8DE
:102380003D20618DD2B289B200293FF411AC1969A8
:10239000636A1970636A01336362638D013B9BB2A8
:1023A0006385638D9BB2002B7FF402AC2A2A7FF4F5
:1023B000FFAB2268536823F48063536022232363B6
:1023C000282384F83D3095E7002D3FF4F1AB9205CA
:1023D0007FF5EEAB628D92B2002A3FF4E9AB1A6949
:1023E000636A1A704BE600BF691900080000FFFF1E
:1023F000F8B5036804465F695E6890F83E20F8050A
:10240000D2B2C7F300250BD5F105C6F3002507D5D9
:102410006FF4807101255961196841F40041196018
:10242000B80506D5F10542BF6FF4007145F002050D
:102430005961780536D5F10534D5608D94F83D1095
:10244000202AD4F830C080B2C9B25BD1002859D15B
:1024500001F0F700212804D0282953D1BCF1210F25
:1024600050D194F83D20E16AD2B2082901D0202948
:102470002AD1282A28D12C4A2046E2625A6822F41E
:10248000E0625A606FF480625A611A6822F48062D6
:102490001A6000232022236384F83D2084F83E3014
:1024A000FEF77DFD3A053BD5F30539D56FF40062A3
:1024B000236845F008055A61236C20461D432564B6
:1024C000BDE8F840FFF7B0BA212A17D116492046D7
:1024D000E1622263202284F83D20002284F83E201D
:1024E0005A6822F4E0625A606FF480625A611A6896
:1024F00022F480621A60FEF779FDD3E76FF4806200
:102500005A61CFE76FF48061102A596145F00405E4
:1025100001D0402AC6D11A6842F400721A60C1E79D
:10252000002DC9D1F8BD00BF0000FFFF90F83D00AD
:102530007047006C704700002DE9F341054638B341
:102540000368DB0710D42B689F075ED42B6819073C
:1025500000F195802B685A0700F1C180E8690028D6
:1025600040F02C81002029E0904C636803F00C03BC
:10257000042B07D0636803F00C03082B0AD16368AF
:10258000DE0307D523689C03DDD56B68002BDAD109
:10259000012013E06B68B3F5803F12D1236843F448
:1025A00080332360FEF7DAFD064623689803CAD419
:1025B000FEF7D4FD801B6428F7D9032002B0BDE8E4
:1025C000F0819BB9236823F480332360236823F4CC
:1025D00080232360FEF7C2FD064623689903B2D527
:1025E000FEF7BCFD801B6428F7D9E6E7B3F5A02F02
:1025F000236803D143F480232360CFE723F480339F
:102600002360236823F48023CBE7684C636813F0CE
:102610000C0F07D0636803F00C03082B10D163681C
:10262000DA030DD423689B0702D52B69012BAFD1A8
:1026300023686A6923F0F80343EAC203236085E74D
:102640002A695B4B6AB101221A60FEF787FD0646D4
:1026500023689F07ECD4FEF781FD801B0228F7D981
:10266000ABE71A60FEF77AFD0646236898077FF508
:102670006DAFFEF773FD801B0228F6D99DE7AA69AE
:102680004A4E4B4BE2B10122C3F88024FEF766FDAF
:102690000446736A9B070DD54FF4FA52454B1B68ED
:1026A000B3FBF2F3019300BF019B5A1E0192002B72
:1026B000F9D14FE7FEF752FD001B0228E9D97CE76C
:1026C000C3F88024FEF74AFD0446736A9F077FF52E
:1026D00041AFFEF743FD001B0228F6D96DE7334CEE
:1026E000E369D80024D40127E36943F08053E36110
:1026F000E36903F080530093009B2F4E3368D905A4
:1027000018D5EB68012B26D1236A43F0010323621D
:10271000FEF724FD41F288380646236A9B073FD521
:10272000002F3FF41BAFE36923F08053E36115E70B
:102730000027E2E7336843F480733360FEF70EFD51
:1027400080463368DA05DCD4FEF708FDA0EB08000C
:102750006428F6D931E7ABB9236A41F2883823F00F
:1027600001032362236A23F004032362FEF7F6FCCD
:102770000646236A9807D3D5FEF7F0FC801B404538
:10278000F7D91AE7052B236A03D143F00403236228
:10279000BAE723F001032362236A23F00403B6E7B8
:1027A000FEF7DCFC801B4045B7D906E7001002406D
:1027B0000000424220000020007000402A4C636864
:1027C00003F00C03082B3ED00022284B02281A6687
:1027D0002CD1FEF7C3FC06462368990120D42B6A4E
:1027E000B3F5803F05D1E26AA96822F00F020A43DF
:1027F000E262696A62680B4322F474121343012295
:1028000063601A4B1A66FEF7A9FC054623689A0115
:102810003FF5A8AEFEF7A2FC401B0228F6D9CCE695
:10282000FEF79CFC801B0228D6D9C6E6FEF796FC74
:10283000054623689B017FF595AEFEF78FFC401B94
:102840000228F6D9B9E601283FF4B8AE63682A6ACF
:1028500003F4803191427FF49BAE6A6A03F47013F3
:1028600093423FF47FAE93E60010024000004242E4
:1028700030B589B06C461B4B03F110052246186831
:102880005968083303C2AB421446F7D1164B04AC67
:1028900003F11005224618685968083303C2AB4299
:1028A0001446F7D111494B6803F00C02082A17D1DE
:1028B000C3F3834208A80244DB0312F8200C0CD5B2
:1028C0000B4ACB6A504303F00F0308AA134413F8D2
:1028D000103CB0FBF3F009B030BD064B5843FAE7AB
:1028E0000348F8E7DB550008EC55000800100240EB
:1028F00000127A0000093D00F8B5054608B901202C
:10290000F8BD0268304C12F0020F11D0570742BFD9
:10291000636843F4E0636360160742BF636843F48F
:10292000605363606368816823F0F0030B43636066
:10293000D0071BD42A6851073FD4130706D5636814
:102940002A6923F4605343EAC2036360FFF790FFF0
:1029500063681E4AC3F30313D35CD8401C4B186052
:102960001C4B1868FEF7BEFB0020C9E76A682368A5
:10297000012A1AD113F4003FC1D0636841F28837AD
:1029800023F0030313436360FEF7E8FB0646636826
:102990006A6803F00C03B3EB820FCBD0FEF7DEFBCB
:1029A000801BB842F3D90320AAE7022A02D113F010
:1029B000007FE1E713F0020FDEE76368E96823F4C4
:1029C000E0630B436360B8E700100240BC560008A8
:1029D0002000002008000020044B054A5B68C3F378
:1029E0000223D35C034A1068D840704700100240AD
:1029F000CC56000820000020044B054A5B68C3F356
:102A0000C223D35C034A1068D840704700100240CC
:102A1000CC5600082000002070477047036810B5AE
:102A20001A69044691070ED5DA6892070BD56FF044
:102A300002021A61012202779B699B0777D002F09C
:102A400013F80023237723681A69500710D5DA6832
:102A500051070DD56FF004021A61022222779B699B
:102A6000204613F4407F68D001F0FEFF0023237757
:102A700023681A6912070FD5DA6810070CD56FF0B2
:102A800008021A6104222277DB69204699075AD08E
:102A900001F0EAFF0023237723681A69D20610D5D4
:102AA000DA68D0060DD56FF010021A61082222777D
:102AB000DB69204613F4407F4BD001F0D5FF0023A3
:102AC000237723681A69D10708D5DA68D20705D5B4
:102AD0006FF0010220461A6101F09AFF23681A691B
:102AE000100608D5DA68110605D56FF08002204679
:102AF0001A6100F0B4F823681A69520608D5DA683A
:102B0000500605D56FF0400220461A61FFF785FF99
:102B100023681A69910622D5DA6892061FD56FF0EC
:102B200020022046BDE810401A6100F097B801F07D
:102B300099FF2046FFF770FF83E701F093FF2046DF
:102B4000FFF76AFF92E701F08DFF2046FFF764FF71
:102B5000A0E701F087FF2046FFF75EFFAFE710BD5B
:102B6000264A036890420AD0B0F1804F07D0A2F500
:102B70009432904203D002F58062904211D14A68AB
:102B800023F0700313431D4A904215D0B0F1804FDB
:102B900012D0A2F5943290420ED002F5806290429B
:102BA0000AD0174A904207D002F58062904203D0C3
:102BB00002F58062904203D1CA6823F44073134344
:102BC0004A6923F08003134303608B68C3620B6878
:102BD00083620A4B98420BD003F5A053984207D06A
:102BE00003F58063984203D003F58063984201D1D6
:102BF0000B69036301234361704700BF002C014050
:102C00000040014010B5044630B390F83D3003F069
:102C1000FF021BB980F83C2000F0BAFF02232068B5
:102C200084F83D30211DFFF79BFF0123002084F82D
:102C3000463084F83E3084F83F3084F8403084F8E1
:102C4000413084F8423084F8433084F8443084F8CA
:102C5000453084F83D3010BD0120FCE770477047D7
:102C60000368DA6822F49072DA605A6922F001028D
:102C70005A61026B012A02BFDA6822F01002DA60A0
:102C8000202380F83E3000230363704710B50446CC
:102C90000268C168136923F440530B4313618368CE
:102CA0000069D1680343606921F416410343E06978
:102CB00021F00C0103430B43D3605369A16923F452
:102CC00040730B4353611A4B9A4220D1FFF794FE95
:102CD0001923E1694343D4E90020B1F5004F4FF0D7
:102CE000640117D14000B3FBF0F0B0FBF1F401FB3D
:102CF0001403DB003233B3FBF1F303F007015B0095
:102D000001EB041103F4F8730B44936010BDFFF75B
:102D100063FEDDE78000B3FBF0F0B0FBF1F401FBF4
:102D200014031B013233B3FBF1F303EB0413ECE7A1
:102D300000380140704710B5044640B390F83D306C
:102D400003F0FF021BB980F83C20FFF7F3FF2423B8
:102D5000226884F83D30D368204623F40053D360C2
:102D6000FFF794FF236800201A6922F490421A6149
:102D70005A6922F02A025A61DA6842F40052DA6093
:102D80002023206484F83D3084F83E3010BD0120BB
:102D9000FCE710B5044660B390F83D3003F0FF0245
:102DA0001BB980F83C20FFF7C5FF2423226884F874
:102DB0003D30D368204623F40053D360FFF766FF0D
:102DC000236800201A6922F490421A615A6922F09D
:102DD00022025A615A6942F008025A61DA6842F4E2
:102DE0000052DA602023206484F83D3084F83E30BD
:102DF00010BD0120FCE790F83D30202B18D1A9B17F
:102E0000A2B190F83C30012B12D0C28400238284FE
:102E1000212201620168036480F83C3080F83D2083
:102E2000CA68184642F08002CA60704701207047A5
:102E30000220704708B50023406AC385C38401F0AF
:102E400021F808BD704707B58168836AB1F5805FD6
:102E5000026834D10169002934D15268C2F30802F2
:102E600023F8022BC28D8362013A92B2C2851ABB4B
:102E70000368D96821F02001D960D96821F48071F4
:102E8000D960596921F001015961202180F83E1073
:102E9000016B012920D10263D96821F01001D960AA
:102EA0001968C90605D501921A6801925B680193F9
:102EB000019B818DFFF7C6FF03B05DF804FB39B9B4
:102EC000016929B95268D2B21A70836A0133C9E71D
:102ED000526802F07F02F7E700F0CEFFECE7000057
:102EE000036837B51A68044612F00F0FD9685D6998
:102EF0000CD1950667D58D0665D590F83E30222B0E
:102F00005BD103B0BDE83040FFF79DBF05F0010085
:102F100001F49075054356D0D50705D5CB0542BFC2
:102F2000236C43F001032364550704D518B1236CC7
:102F300043F002032364930704D518B1236C43F0D4
:102F400004032364150707D501F0200303431EBFC4
:102F5000236C43F008032364236C73B3920608D5F3
:102F60008B0606D594F83E30222B02D12046FFF77F
:102F70006AFF236820465B69256C03F0400305F077
:102F800008051D431BD0FFF76BFE23685A695506E1
:102F900010D55A69A06B22F040025A6150B1534BD0
:102FA0004363FEF7ABF940B1A06B436B03B0BDE8E0
:102FB00030401847204600F065FF03B030BD00F0F8
:102FC00061FF2564F9E7206B012855D1D00653D560
:102FD000CD0651D5002101911A6801925A680192DB
:102FE000019A5A6912F040022AD0A06B0268526816
:102FF00092B2002AE1D0A58D9542DED9E2858269A0
:10300000202A15D0DA6822F48072DA605A6922F038
:1030100001025A615A6922F040025A61202284F862
:103020003E202163DA6822F01002DA60FEF747F9E9
:10303000E38DA18DC91A89B22046FFF703FFBCE7D3
:10304000E18D88B2E18D89B20029B6D0A18D091A2F
:1030500089B20029B1D0D86820F49070D86058693E
:1030600020F001005861202084F83E002263DA68D5
:1030700022F01002DA60DFE7100626D50D0624D50F
:1030800094F83D20212A98D1A168226AB1F5805F89
:1030900016D12169A1B932F8021BC1F308015960A8
:1030A0002262E28C013A92B2E284002A85D1DA6887
:1030B00022F08002DA60DA6842F04002DA607CE7EF
:1030C000511C216212785A60EBE750067FF575AF0C
:1030D0004A067FF572AFDA68204622F04002DA60D5
:1030E000202384F83D3000F0CAFE66E7352E000844
:1030F00090F83C30012B11D02423026880F83D3039
:10310000D36823F00C0343F00803D360202380F836
:103110003D30002380F83C3018467047022070474D
:1031200090F83C30012B11D02423026880F83D3008
:10313000D36823F00C0343F00403D360202380F80A
:103140003D30002380F83C3018467047022070471D
:1031500090F83D2090F83E0010437047C28582856C
:103160008162034622220020186483F83C0083F821
:103170003E201B68DA6842F48072DA605A6942F0D5
:1031800001025A61DA6842F02002DA60704770B4D6
:1031900090F83E60202E10D161B15AB190F83C40B9
:1031A000012C0AD0012480F83C400024046370BC48
:1031B000FFF7D4BF012070BC70470220FBE700007E
:1031C00086B0042841D8DFE800F003101C28340042
:1031D0001F4B20489A6942F004029A619B6903F0F0
:1031E00004030193019B06B07047194B1A489A6972
:1031F00042F008029A619B6903F008030293029B64
:10320000F1E7134B15489A6942F010029A619B69E5
:1032100003F010030393039BE5E70D4B10489A69F5
:1032200042F020029A619B6903F020030493049BFF
:10323000D9E7074B0B489A6942F040029A619B69B3
:1032400003F040030593059BCDE70020CBE700BFCB
:103250000010024000080140000C01400010014035
:103260000014014000180140FDF778BF704708B511
:10327000FDF768FFFEF703F8FFF7F8FF08BD70479A
:103280000A4B82B0DA6942F08052DA61DA6902F000
:1032900080520092009A9A6942F001029A619B69F9
:1032A00003F001030193019B02B07047001002403C
:1032B0000C4BD3F8FC20D2015EBFD3F8FC2042F0C7
:1032C0008072C3F8FC200022074B5A601A6842F053
:1032D00001021A6000BF00BF00BF5868B0FA80F05A
:1032E0004009704700ED00E0001000E008B5FFF76E
:1032F000C7FFFFF7DDFFFDF719FFFFF7C0FFBDE8D0
:10330000084000F01DBF00009F4B82B09A69013851
:1033100042F001029A619B6903F001030193019B52
:103320002F2838D8DFE810F030003900400047007F
:103330004C00530058005F0064006B00740079007B
:10334000800089008E0095009E00A700AC00B300AD
:10335000BC00C100C800370037003700CD00D400E2
:103360003700370037003700D900DE00E500EC00F9
:10337000F300F900FE00030108010D01120117011D
:103380001C01210126012B01804A536843F0E063B0
:1033900043F00103536002B070477C4A536823F046
:1033A000010343F0E063F5E7784A536843F0E063D4
:1033B00043F00203EEE7754A536823F00203F0E797
:1033C000724A536843F0E06343F00403E2E76F4A54
:1033D000536823F00403E4E76C4A536843F0E06366
:1033E00043F00803D6E7694A536823F00803D8E797
:1033F000664A536843F0E06343F03003CAE7634A28
:10340000536823F0300343F0E06343F01003C1E757
:103410005E4A536823F03003C3E75C4A536843F0C5
:10342000E06343F0C003B5E7584A536823F0C00394
:1034300043F0E06343F04003ACE7544A536823F0A1
:10344000C003AEE7514A536843F0E06343F440736E
:10345000A0E74E4A536823F4407343F0E06343F41B
:10346000007397E7494A536823F4407343F0E063DD
:1034700043F480738EE7454A536823F4407390E722
:10348000424A536843F0E06343F4406382E73F4AB3
:10349000536823F4406343F0E06343F4006379E747
:1034A0003A4A536823F440637BE7384A536843F051
:1034B000E06343F480536DE7344A536823F4805348
:1034C0006FE7324A536843F0E06343F4004361E737
:1034D0002E4A536823F4004363E72C4A536823F0D1
:1034E000E06357E7294A536823F0E06343F08073B1
:1034F00050E7264A536823F0E06343F0007349E73E
:10350000224A536823F0E06343F0806342E71F4A96
:10351000D36943F00103D3613DE71C4AD36923F02B
:103520000103F8E7194AD36943F00203F3E7174AA6
:10353000D36923F00203EEE7144AD36943F004038E
:10354000E9E7124AD36923F00403E4E70F4AD36999
:1035500043F00803DFE70D4AD36923F00803DAE7F5
:103560000A4AD36943F01003D5E7084AD36923F028
:103570001003D0E7054AD36943F40063CBE7034A5D
:10358000D36923F40063C6E7001002400000014045
:1035900091FAA1F3B3FA83F370B50D0E0F2691FAE9
:1035A000A1F1B1FA81F144599B0006FA03F38900B5
:1035B00024EA030402FA01F12143415170BD91FA5A
:1035C000A1F3B3FA83F370B50D0E042691FAA1F1BD
:1035D000B1FA81F144599B0006FA03F3890024EA09
:1035E000030402FA01F12143415170BD431C04D090
:1035F0000C3151F80C3C5A1C01D100207047834219
:1036000001F10C01F5D10120704700005E4B00F084
:103610000F022DE9F34753F82240431C06460F469C
:1036200001F00708C1F3062AC0F3031503D19E2158
:10363000564800F001F92846FFF7C2FDB8F1010F26
:1036400005464FEA146944D194FAA4F3B3FA83F31C
:10365000032150F809209B0001FA03F322EA030337
:1036600094FAA4F2B2FA82F29200914001220B4342
:1036700040F809302146284608F1FF38FFF788FF57
:10368000B8F1010F06D817F0080218BF042221462E
:10369000FFF795FF94FAA4F2B2FA82F39A000F238F
:1036A000934094FAA4F2B2FA82F255F80910C7F3E3
:1036B00001170B409200012F23FA02F322D0022FB0
:1036C0004BD0082B31D1042221462846FFF760FF5A
:1036D0002BE0B8F1030F0DD8DFE808F00212071055
:1036E0005046FFF711FE0822C4E75046FFF70CFED4
:1036F0000922BFE7FB21254800F09EF80022B9E728
:103700004246B7E7042B04D1082221462846FFF79A
:103710003FFFEA68230A22EA142293FAA3F4B4FAD8
:1037200084F301249C401443EC60194B9A6942F0E5
:1037300001029A619B6903F001030193019BA6F1C9
:103740000D03012B14D8134A536823F0E06343F0B0
:103750008063536002B0BDE8F087042B04D10822D7
:1037600021462846FFF714FFEB6823EA1424DBE721
:103770000F2E02D0133E012EECD8064A536823F0D8
:10378000E06343F00073E4E77C560008FD55000851
:103790000010024000000140431C06D170478342E4
:1037A00002D18968FFF732BF0C310B685A1CF6D181
:1037B00040F22911014800F03FB800BFFD55000854
:1037C0000B685A1C01D100207047834201D1486820
:1037D00070470C31F4E7431C01D0FFF7F1BF002024
:1037E00070474B6813B94FF0FF307047834201D1E7
:1037F000086870470C31F4E708B1FFF7F2BF4FF0EB
:10380000FF30704703460868421C00D17047984259
:1038100001D1886870470C31F5E7431C01D0FFF7F0
:10382000F1BF704703468B42084604D01BB1002904
:103830000CBF184600207047FEE70000104B1A68C6
:1038400042F001021A6059680E4A0A405A601A682A
:1038500022F0847222F480321A601A6822F48022E4
:103860001A605A6822F4FE025A604FF41F029A60EE
:103870000022DA624FF00062034B9A60704700BF8B
:10388000001002400000FFF800ED00E0043870472F
:1038900003683F4A8AB0934218D102F564429169A5
:1038A00041F400619161926902F400620192019A0F
:1038B000384A934237D1384BDA6942F02002DA6154
:1038C000DB6903F020030693069B15E0B3F1804FFC
:1038D00014D0324A93421CD0314A934231D0314AFB
:1038E0009342E5D12C4BDA6942F01002DA61DB69D0
:1038F00003F010030593059B0AB07047264AD1696F
:1039000041F00101D161D26902F001020292029AF2
:10391000CEE7214AD16941F00201D161D26902F0BA
:1039200002020392039A204A934214D11A4B9A69D5
:1039300042F480329A619B6903F480330793079BBA
:10394000DAE7154AD16941F00401D161D26902F088
:1039500004020492049A154A93420DD0144A9342E9
:10396000CAD10D4B9A6942F480229A619B6903F493
:1039700080230993099BBFE7074B9A6942F4003201
:103980009A619B6903F400330893089BB4E700BF76
:10399000002C0140001400400010024000040040D0
:1039A0000008004000100040004001400044014079
:1039B000004801400368264A93420CD125498A6990
:1039C00022F400628A61244A934221D1214AD369B8
:1039D00023F020030FE0B3F1804F0ED01F4A934233
:1039E00011D01F4A93421CD01E4A9342EBD1194A70
:1039F000D36923F01003D36170471649CA6922F0D6
:103A00000102CA61DFE71349CA6922F00202CA61F2
:103A1000154A93420AD10F4A936923F48033936184
:103A200070470C49CA6922F00402CA610F4A9342E6
:103A300003D00F4A934205D07047064A936923F496
:103A40000033ECE7034A936923F48023E7E700BFE0
:103A5000002C01400010024000140040000400400F
:103A600000080040001000400040014000440140B8
:103A70000048014008B5431C014612D01B4B984238
:103A80002AD016D8A3F54063984227D00CD8B0F1BD
:103A9000804F25D0A3F58063984223D01448FFF7C8
:103AA000CBFE6FF00D0008BD124B9842F6D13620C8
:103AB000F9E7114B984217D009D8A3F5C0539842A3
:103AC00012D003F5A0539842E8D11820EBE70B4B36
:103AD0009842E3D11A20E6E73720E4E71E20E2E728
:103AE0001C20E0E71D20DEE71920DCE70014004081
:103AF000D456000800100040004401400048014036
:103B000008B5431C014612D01C4B98422AD016D847
:103B1000A3F54063984227D00CD8B0F1804F25D050
:103B2000A3F58063984223D01548FFF785FE6FF018
:103B30000D0008BD134B9842F6D13620F9E7124B21
:103B4000984217D009D8A3F5C053984214D003F572
:103B5000A0539842E8D11820EBE70C4B9842E3D1F0
:103B60001A20E6E73720E4E71E20E2E71C20E0E722
:103B70001D20DEE71920DCE71B20DAE700140040F7
:103B8000D4560008001000400044014000480140A5
:103B900038B50446FFF77CFE0068FFF76BFFD4E9F9
:103BA0001212FDF7F3FA2068FFF764FFFDF720FB20
:103BB0002068FFF7A5FF05462068FFF75BFF8542F9
:103BC0000DD02068FFF79CFFD4E91212FDF7DEFA52
:103BD0002068FFF795FFBDE83840FDF709BB38BD09
:103BE0002DE9FF4704468946006D4A4990461F4625
:103BF000DDF830A0FFF7EFFD47490546606DFFF7A0
:103C0000EAFD0646002D00F08280636D013301D08D
:103C100000287CD031462846FFF704FE20600028AB
:103C200075D03E4B98423CD103F55843DA6842F4D4
:103C30008042DA60DA6822F48042DA609A6942F4FB
:103C400080429A619B6903F480430193019B252381
:103C5000A4F858302F49206DFFF79EFD1EB12E4964
:103C6000606DFFF799FD94F859202D4B251D43F801
:103C7000225023680022C4E901390C2394F958002A
:103C80000121C4E9038AC4E9063267612262FDF7B3
:103C90007DFA2846002E35D104B0BDE8F047FFF785
:103CA00078B8204B984215D103F5E6331A6942F4EF
:103CB00000321A611A6922F400321A61DA6942F498
:103CC0000032DA61DB6903F400330293029B4FF4A4
:103CD0009373BDE7144B9842BCD1144D2B6943F448
:103CE00080232B612B6923F480232B61EB6943F440
:103CF0008023EB61EB6903F480230393039B40F281
:103D00002723A5E704B0BDE8F047FFF714B804B0D7
:103D1000BDE8F087345A0008F8590008003801401F
:103D2000D001002000440040004800400010024044
:103D300010B410B110BCFFF753BF10BC70470000A7
:103D400008B5074B90F8592053F82200FFF700FA06
:103D500000F02200A0F122035842584108BD00BFE4
:103D6000D001002008B5074B90F8592053F82200E5
:103D7000FFF7EEF900F02100A0F12103584258416D
:103D800008BD00BFD001002070B50E46054610B931
:103D90004FF0FF3070BDFFF7D3FF04460028F7D186
:103DA000294611F85A3F0122337095F85900034B08
:103DB00053F82000FFF7EBF92046EBE7D001002095
:103DC00038B50D460446B8B1FFF7BAFFA0B994F96B
:103DD0005800A564FDF71AFA94F85900074B04F14E
:103DE0005A0153F820000122FFF7D1F994F9580045
:103DF000BDE83840FDF7FCB938BD00BFD001002058
:103E000038B515460446B8B1C16490F95800FDF7BD
:103E1000FDF9B4F86A30216E9BB294F85900194448
:103E2000064BAAB253F82000FEF7E5FF94F95800BC
:103E3000BDE83840FDF7DCB938BD00BFD001002037
:103E400048B1436D013306D190F85920024B53F825
:103E50002200FFF74DB97047D001002048B1436DF3
:103E6000013306D190F85920024B53F82200FFF796
:103E700057B97047D0010020436C04381847836C51
:103E8000043818471FB503680446186810F001008D
:103E900013D0002200921A6800925B680093009B86
:103EA000201FFFF74DFF40BB0122204604F15601C1
:103EB00004B0BDE81040FFF76AB9196811F00201BB
:103EC00006D001901A6801925B680193019BE7E7B5
:103ED0001A6812F0040206D002911A6802925B6816
:103EE0000293029BDCE719680907D9D503921A6887
:103EF00003925B680393039BD2E704B010BD0000FC
:103F000008B52520FDF7AAF9024B1868BDE808405E
:103F1000FEF7E6BFD0010020262008B5FDF79EF988
:103F2000034B586818B1BDE80840FEF7D9BF08BD7B
:103F3000D0010020272008B5FDF790F9034B9868C1
:103F400018B1BDE80840FEF7CBBF08BDD001002086
:103F50000268094B9A420DD103F5CE331A6942F03B
:103F600000521A611A6922F000521A61DA6922F0CD
:103F70000052DA61704700BF0074004010B50C4970
:103F800086B00446FFF727FC019078B10849204627
:103F9000FFF743FCC0F3C43002280CBF10210021FE
:103FA00001A8FDF77EF901A8FDF76DF906B010BD77
:103FB000EC560008F8B514490646FFF70CFC00F073
:103FC000F5FB124D044655F8203073B90E493046C2
:103FD000FFF701FC0746B02000F063FF06463946B4
:103FE00000F040FC55F824301E6055F824301C6861
:103FF00044B1204600F016FC2046BDE8F840B02150
:1040000000F051BFF8BD00BF705700082804002021
:10401000836810B5044613B1032201469847204631
:1040200010BD00000023012803F1010202D0134655
:104030004008F8E71421DBB24B43044A181D104432
:10404000816811B113441B6918477047DC010020D7
:104050000120FDF79DB90220FDF79AB90420FDF774
:1040600097B90820FDF794B91020FDF791B938B53C
:1040700005242025A8B2FDF78BF9013C4FEA450540
:10408000F8D138BD38B506244FF48065A8B2FDF7E5
:104090007FF9013C4FEA4505F8D138BD0721204B97
:1040A00006221975082183F82810092183F83C108D
:1040B0000A2183F8501017211A7083F86410002227
:1040C00083F8781083F88C1083F8A01083F8B4106C
:1040D0002821DA601A625A639A64DA651A67C3F8AB
:1040E0008420C3F89820C3F8AC20C3F8C02083F81C
:1040F000C810C3F8D42083F8DC10C3F8E82083F894
:10410000F010C3F8FC2083F80411C3F8102183F8E1
:104110001811C3F8242183F82C11C3F838217047F3
:10412000DC01002038B5054CA4F5A075143C201D19
:10413000FFF76EFFAC42F9D138BD00BF1C03002071
:1041400000B591B02022002107A800F071FF1422D1
:10415000002101A800F06CFF022301211022069328
:104160000D934FF4801306A8CDE90A120F93FEF7C2
:10417000E3F918B124210B48FFF75EFB00210F2261
:10418000022301A8CDE90123CDE903110591FEF732
:10419000B3FB18B130210348FFF74EFB11B05DF8B7
:1041A00004FB00BF705A00080C480D490D4A00235B
:1041B00002E0D458C4500433C4188C42F9D30A4ADC
:1041C0000A4C002301E013600432A242FBD3FFF744
:1041D00035FB00F0EBFE00F05AFE704700000020B7
:1041E00088000020D05E00088800002070040020B5
:1041F000FEE70000C3B2242B2DE9F0410D462AD87A
:104200002E4A00F4E06052F823400443621C53D06D
:104210002B4EC4F3031756F8273004F00F0823FA87
:1042200008F3DB0710D520462649FFF7DFF918B35E
:104230002046FFF7A3FE012303FA08F256F82730C1
:1042400023EA020346F82730052D2FD8DFE805F0D2
:104250001E2A2426282C00F0C002C02A2CD1C92BEB
:104260002AD8194B00F03F0253F82220134B00F4D8
:10427000E06053F82240C8E720461449FFF7B6F93A
:104280000028D8D02046FFF795FED4E7002120462D
:10429000BDE8F041FFF7BAB91021F8E72021F6E7B1
:1042A0000321F4E70121F2E70921F0E74921BDE804
:1042B000F0410748FFF7C0BABDE8F081205B000875
:1042C0004C040020EC560008F85A0008705700080B
:1042D000B45B0008C3B2242B19D8184A00F4E0607C
:1042E00052F823301843C0F30313042B98BF144A29
:1042F00000F00F0098BF52F82320124B88BF002215
:1043000053F82030C3F30F23A9B11361704700F0B5
:10431000C002C02A0CD1C92B0AD80B4B00F03F02B7
:1043200053F82220054B00F4E06053F82230D9E71F
:104330004FF0FF30D7E75361704700BF205B0008A4
:104340000C0000207C560008F85A0008FEF78CBFCD
:1043500038B5044648B1FEF787FF054600F0A7FDD3
:10436000FEF782FF431BA342F8D338BDB0F8FC3000
:10437000B0F8F800181A00F03F007047B0F8FC30B1
:10438000B0F8F8209BB293421ABFD0F8F030985C96
:104390004FF0FF30704790F8FA30B0F8FE00C0B22E
:1043A000834227BFC3F13F03C018C01A00F1FF309A
:1043B000704707B503688DF8071001225B680DF19F
:1043C0000701984703B05DF804FB13B50DF1070131
:1043D0000446FFF7D9FC90B9B4F86830B4F864200B
:1043E000013303F03F03934209D0B4F868209DF8ED
:1043F0000700E16D92B29BB28854A4F8683002B015
:1044000010BD0000B0F86A2038B5C36E134403F045
:104410003F03A0F86A30B0F86A20B0F8663092B274
:1044200093421BD0B0F86A20B0F86A4095B203F10D
:104430004002521B534203F03F03A4B202F03F027A
:1044400058BF5A42C4F140039A4228BF1A46044951
:10445000C266FFF7D5FC4FF0FF3038BD0020FCE707
:104460000544000803682DE9F0479B680446884628
:104470001646984701232374D4F8E830B4F8FA902C
:1044800001338246C9F1400904F1940708D194F838
:1044900004312BB10023384684F80431FFF7D0FCF7
:1044A000236820469B6898470028F9D035464D453B
:1044B00001D8554515D9D14528BFD14623684A466C
:1044C00041465B6820469847236820469B6898478A
:1044D000B4F8FA20A5EB0905C8448246C2F14009A8
:1044E000E5E7B4F8FA20D4F8F4005319402B10444F
:1044F00019D82A46414600F08DFDA946B4F8FA3095
:1045000038461D4405F03F05A4F8FA50FFF72AFC91
:1045100030B94A4638460B49C4F80091FFF770FCA1
:104520003046BDE8F087C2F140094A46414600F0F6
:1045300071FDD4F8F400A5EB090208EB090100F0C5
:1045400069FDDBE705440008037C33B1B0F8FA20CD
:10455000B0F8FE309BB29A42FAD17047914208BF40
:104560004FF0FF3100F11103C0F8F0300023C0E933
:10457000392100F15102A0F8FC30C0E93D23A0F838
:10458000FE307047CBB2242B08D80E4A01F4E0610C
:1045900052F823301943C0F8E810704701F0C00208
:1045A000C02A0CD1C92B0AD8074B01F03F0253F89F
:1045B0002220044B01F4E06153F82230EAE74FF087
:1045C000FF31E8E7205B0008F85A0008CBB2242B43
:1045D00008D80E4A01F4E06152F823301943C0F8BC
:1045E000E410704701F0C002C02A0CD1C92B0AD8D0
:1045F000074B01F03F0253F82220044B01F4E06125
:1046000053F82230EAE74FF0FF31E8E7205B00087B
:10461000F85A000870B54FF47A7316460022C0E9C4
:104620000123154B044603604FF0FF33C0F8E83018
:10463000124B0D46984211D1C321FFF7A3FFC221AF
:10464000FFF7C4FF012E04BF4FF0FF33C4F8E8307A
:104650002046D4E93921FFF781FF70BD084928467B
:10466000FFF7CAF80749C4F8E8002846FFF7C4F87E
:10467000C4F8E400E6E700BFB05C00081C030020BB
:10468000F8590008345A0008D0F8E83010B5013362
:1046900004460ED10368DB68984794F8043143B9A7
:1046A000012304F1940084F80431BDE81040FFF7C1
:1046B000D5BB10BD02F00703023BDBB2042B2DE992
:1046C000F7430E46C0F8081196BF1E490024CC5C83
:1046D00002F03003302B054680F8052126D14FF437
:1046E000C067013412F0080F14BF4FF400594FF0A7
:1046F0000009082C21D0092C21D040F2A111124828
:10470000FFF79AF805F1940831463B4622464046A9
:10471000CDF80090FFF70CFB2846FFF7B5FF4046A9
:104720000A4903B0BDE8F043FFF74ABB12F0200787
:104730001CBF4FF480670134D4E70024E2E74FF454
:104740008054DFE7A05C0008295C0008CB43000828
:1047500010B50446FFF798FFB4F8FC20B4F8F83021
:1047600092B29A4217BFD4F8F0204FF0FF30D05CDD
:1047700001331CBF03F03F03A4F8F83010BD000064
:10478000002202490248FFF745BF00BF0044004035
:104790001C030020836810B504462BB10322014698
:1047A00098470023C4E9023310BD0000194A0346AC
:1047B00090421FD0B0F1804F1ED0A2F594329042AB
:1047C0001CD002F5806290421AD002F5006290423D
:1047D00018D04FF6FF70104A934215D00F4A9342FB
:1047E00014D00F4A934213D002F58062934208BF5F
:1047F000082070470020EEE70120ECE70220EDE7FB
:104800000320EEE70420704705207047062070471C
:1048100007207047002C0140001400400040014078
:1048200000440140014670B5044651F8100FFFF7EF
:10483000BDFF05460846FFF7BDF80023084A04F10E
:10484000600642F82530E36004F1B005B54204D0BB
:10485000103D2846FFF7DCFBF8E7204670BD00BF9F
:1048600028040020F8B50023044683668367C0F857
:104870008830C0F89830C0F8A8300846FFF796FF97
:104880004FF6FF7398420D46064603D12F211E486E
:10489000FEF7D2FF1D4A04F10C0342F82630002334
:1048A0000E2204F1100625613046C4E90C33C4E938
:1048B0000E33C4E91033C4E9162384F82C30A36402
:1048C00084F84C3084F84D30E460FEF7E1FF04F1E9
:1048D000600504F1B00728461035FFF75BFFBD42C5
:1048E000F9D100234FF6FF72C4E90033C4E9063260
:1048F000C4E90833A360636180233046A362FEF7F6
:1049000081F92046F8BD00BFD45C000828040020CF
:1049100010B5074C206810B10430FEF77FF8E0694D
:1049200020B1BDE810400430FEF778B810BD00BFDC
:1049300028040020034B186810B10430FEF76EB84D
:10494000704700BF28040020034B586810B10430A2
:10495000FEF764B8704700BF28040020034B986836
:1049600010B10430FEF75AB8704700BF2804002089
:10497000034BD86810B10430FEF750B8704700BF41
:1049800028040020034B186910B10430FEF746B824
:10499000704700BF28040020034B586910B1043051
:1049A000FEF73CB8704700BF28040020034B98690D
:1049B00010B10430FEF732B8704700BF2804002061
:1049C000034B186A10B10430FEF728B8704700BFD7
:1049D00028040020826810B50AB900F015FDC368EC
:1049E000BDE810401847000010B5044620B940F259
:1049F00032410648FEF720FF2046FEF747FF0068D9
:104A0000836E13B16030FFF7E5FF10BDD45C000882
:104A1000FFF7EABF38B5054620B940F245411048D6
:104A2000FEF70AFF2B7F013B072B11D8DFE803F0CD
:104A3000150410111010101302242846FEF726FF4B
:104A40000068063400EB041083680BB1FFF7C2FF67
:104A500038BD0324F1E70424EFE70124EDE700BFAC
:104A6000D45C0008FFF7D6BFFFF7D4BF70B505468A
:104A70000C46084649B1FBF7ABFB2B6802462146C2
:104A80002846BDE870405B68184770BD03688A68B7
:104A90005B680968184708B5FFF7E8FF08BD0368B9
:104AA0001B68184708B50249FFF7E0FF08BD00BFC3
:104AB0007354000838B50546FFF7D8FF044628466A
:104AC000FFF7F0FF204438BD38B50546FFF7DEFF9D
:104AD00004462846FFF7E6FF204438BDFFF7EABF4B
:104AE0000023012A98BF0A2230B58BB00C468DF8FE
:104AF000243009A92546B4FBF2F404FB1253DBB2BF
:104B0000092B94BF30333733DBB2AA4201F8013DA1
:104B1000F0D9FFF7ABFF0BB030BD2DE9F0410746F0
:104B20000E4614462AB9BDE8F0410368C9B21B68B5
:104B300018470A2A05D1002905DBBDE8F041FFF737
:104B4000CFBFD2B2F9E72D21FFF7A9FF22460546D4
:104B500071423846FFF7C4FF2844BDE8F081FFF7F3
:104B6000DCBF38B50546FFF7D8FF04462846FFF7F7
:104B700099FF204438BD10B50446FFF7E7FBE0601D
:104B8000236820465B699847002808DAFFF7DEFBB8
:104B9000E368C01AA3689842F2D34FF0FF3010BD0B
:104BA0002DE9F04107460C460D468E18B542A5EB9F
:104BB000040807D03846FFF7DEFF031E02DB05F8C6
:104BC000013BF3E74046BDE8F0812DE9F04107469F
:104BD000884616461D4673B100243846FFF7CBFFC2
:104BE000031E05DB434503D033550134A542F4D100
:104BF0002046BDE8F0811C46FAE710B5044600687F
:104C000000F000FA204610BD10B50446006808B157
:104C100000F0F8F90023C4E90133236010BD38B572
:104C200004460D460068013100F0ACFA10B1C4E949
:104C30000005012038BD036810B5044623B1436860
:104C40008B4201D3012010BD2046FFF7E8FF00286A
:104C5000F9D0A368002BF5D122681370F2E770B584
:104C60000E46114604461546FFF7E5FF20B92046DB
:104C7000FFF7CAFF204670BD31462068A56000F0EE
:104C8000A6FAF7E738B5002304460D46C0E900331D
:104C9000836039B10846FBF79BFA29460246204655
:104CA000FFF7DDFF204638BD38B5054600680C46E5
:104CB00038B1096819B16A68A3689A420BD200F04A
:104CC000A1F923682B6063686B60A368AB60002365
:104CD000C4E9003304E000F07AFAA368AB60002373
:104CE000A36038BD884210B50B46044604D009685D
:104CF00021B19A68FFF7B3FF204610BDFFF784FF8C
:104D0000FAE7002310B50446C0E900338360FFF7DB
:104D1000E9FF204610BD884210B5044601D0FFF7D8
:104D2000C3FF204610BD38B505460C4649B10846BC
:104D3000FBF74EFA214602462846FFF790FF284629
:104D400038BDFFF761FFFAE710B5002304468AB0CB
:104D5000C4E90033A360084601A900F0E5F8204645
:104D600001A9FFF7E0FF20460AB010BD10B50023EF
:104D700004468AB0C4E90033A360084601A900F0E4
:104D8000D5F8204601A9FFF7CEFF20460AB010BD96
:104D900070B505460E4609B9002070BD6AB1846839
:104DA00014442146FFF747FF0028F5D02868AB6878
:104DB0003146184400F00BFAAC600120EDE7002307
:104DC00007B501228DF8041001A98DF80530FFF711
:104DD000DFFF03B05DF804FB10B58A68096804467C
:104DE000FFF7D6FF10B92046FFF70EFF204610BD93
:104DF00010B50446FFF7E3FF10B92046FFF704FFA4
:104E0000204610BD836810B5934206D90468A018E7
:104E100000F0D0F908B1001B10BD4FF0FF30FBE7E8
:104E20000022FFF7EFBF00002DE9F0411F469A4234
:104E300088BF13460E46144688BF3C460C4988BFBF
:104E40001F468046FFF71EFFB568A5420DD9BD423B
:104E500028BF3D460022336840465F5D5A553168A1
:104E60002144FFF760FF33685F554046BDE8F0819D
:104E700075540008006808B100F094B8704708B590
:104E80000320FCF771F9BDE8084000F00EB808B542
:104E9000AFF30080FBF7A2FCFBF794FD00F074F881
:104EA000FAE700F0A7B800F0ADB8FEF71FBA7047F8
:104EB000F0B503468BB0084669B3911E222931D85C
:104EC0000A2A06D1002B04DA01265B4201AD2946ED
:104ED0000EE00026FAE7B3FBF2F402FB1437234698
:104EE000092FFCB294BF30345734E4B201F8014BBF
:104EF000002BF0D1A942EED0034616B12D2203F8C3
:104F0000012B0A465C1EAA4207D84A1B8D4288BF65
:104F10000022002199540BB0F0BD12F8016D04F885
:104F2000016FF0E70020F6E7FFF7C2BF70B5044657
:104F30008AB0084689B1931E222B23D801AD294699
:104F40006CB9A9420BD00B46421EAB4215D84B1B85
:104F50008D4288BF00230022C2540AB070BDB4FB4A
:104F6000F2F302FB13461C46092EF3B294BF303312
:104F70005733DBB201F8013BE2E713F8014D02F8C9
:104F8000014FE2E70020E8E708B5044B2BB10448E5
:104F9000FFF7ECF908B1AFF3008008BD0000000096
:104FA0001C0300200A22002100F096B970B50026EB
:104FB0000C4D0D4C641BA410A64209D100F028FA38
:104FC00000260A4D0A4C641BA410A64205D170BDF0
:104FD00055F8043B98470136EEE755F8043B9847EF
:104FE0000136F2E7AC5E0008AC5E0008AC5E00087B
:104FF000C45E0008024B0146186800F069B800BFA3
:1050000024000020024B0146186800F019B800BFC8
:10501000240000200A44914200F1FF3300D1704780
:1050200010B511F8014B914203F8014FF9D110BDB1
:1050300003460244934200D1704703F8011BF9E78D
:1050400038B50546002940D051F8043C0C1F002B10
:10505000B8BFE41800F052F91C4A136833B9636012
:1050600014602846BDE8384000F04EB9A34208D984
:10507000206821188B4201BF19685B6809182160FC
:10508000EDE71A465B680BB1A342FAD911685018D4
:10509000A0420BD120680144501883421160E0D136
:1050A00018685B68014411605360DAE702D90C2389
:1050B0002B60D6E7206821188B4201BF19685B6816
:1050C0000918216063605460CBE738BD600400209C
:1050D000F8B5CD1C25F0030508350C2D38BF0C257F
:1050E000002D064601DBA94203D90C2333600020C2
:1050F000F8BD00F003F921490A6814469CB9204F15
:105100003B6823B92146304600F044F83860294610
:10511000304600F03FF8431C23D10C233046336067
:1051200000F0F2F8E3E723685B1B17D40B2B03D9DD
:1051300023601C44256004E06368A2420CBF0B603E
:105140005360304600F0E0F804F10B00231D20F01E
:105150000700C21ACCD01B1AA350C9E722466468C4
:10516000CCE7C41C24F00304A042E3D0211A30464B
:1051700000F010F80130DDD1CFE700BF600400205F
:1051800064040020024B0A460146186800F0C2B8C9
:105190002400002038B50023054D044608462B6046
:1051A000FBF774FF431C02D12B6803B1236038BDA9
:1051B000680400200346C9B2184613F8012B12B147
:1051C0008A42F9D17047002918BF00207047034672
:1051D00011F8012B03F8012B002AF9D170470000C8
:1051E000012B2DE9F047804601D0242B06D900F091
:1051F0007DF8162303600020BDE8F0870D46354F8B
:10520000284615F8014BE65D16F00806F8D12D2C5E
:105210002FD101262C78851C002B57D0102B09D1BB
:10522000302C07D1287800F0DF00582849D110230E
:105230006C780235002706F1004E0EF1FF3EBEFBF2
:10524000F3F9384603FB19EAA4F1300CBCF1090F5D
:1052500014D86446A34222DD002F1DDB81451BD3F9
:1052600001D1A24518DB012700FB034015F8014BD3
:10527000EAE72B2C04BF2C78851CCDE7A4F1410C68
:10528000BCF1190F01D8373CE4E7A4F1610CBCF183
:10529000190F04D8573CDDE74FF0FF37E6E7002F42
:1052A00007DA22237046C8F80030002AA4D0691E0D
:1052B00005E006B14042002A9ED0002FF7D11160D0
:1052C0009AE73024002BB5D10823B3E7302CA9D0BE
:1052D0000A23AFE74B5D000813460A460146024821
:1052E0000068FFF77DBF00BF24000020014B186855
:1052F000704700BF24000020704770470148FFF747
:10530000FBBF00BF6C0400200148FFF7F6BF00BFE1
:105310006C040020F8B5074614460E4621B9114624
:10532000BDE8F840FFF7D4BE22B9FFF789FE254655
:105330002846F8BD00F014F8A0420FD221463846A6
:10534000FFF7C6FE05460028F2D031462246FFF799
:1053500061FE31463846FFF773FEE9E73546E7E779
:1053600051F8043C181F002BBCBF0B58C0187047E5
:10537000062008B500F02CF80120FBF7A5FE1F2938
:1053800038B504460D4604D9162303604FF0FF30AC
:1053900038BD426C12B152F821304BB9204600F0B2
:1053A00031F82A4601462046BDE8384000F018B8DA
:1053B000012B0AD0591C03D1162303600120E7E713
:1053C0000024284642F8254098470020E0E70000E6
:1053D000024B01461868FFF7D2BF00BF240000202F
:1053E00038B50023064D0446084611462B60FBF7EE
:1053F0006DFE431C02D12B6803B1236038BD00BF92
:1054000068040020FBF76ABE08B5FFF7B1FF000093
:10541000F8B500BFF8BC08BC9E467047F8B500BFA1
:08542000F8BC08BC9E46704771
:105428004D6F646520203A2000202020506C7320A6
:10543800456E203A2000202020506C73204F757450
:1054480031203A2000202020506C73204F75743290
:10545800203A2000202020416D706C6974756465C5
:10546800203A20003130327C3230300D0A003130A1
:10547800347C3230300D0A003130367C34303935E6
:105488000D0A003130387C310D0A003931307C3159
:105498000D0A00496E697469616C697A696E672ED4
:1054A8002E2E004E6F20656E6F756768206D656DD6
:1054B8006F72792120282569290A00433A5C5573BF
:1054C8006572735C5033345C417070446174615C24
:1054D8004C6F63616C5C41726475696E6F31355CE9
:1054E8007061636B616765735C53544D6963726F78
:1054F800656C656374726F6E6963735C686172640E
:10550800776172655C73746D33325C322E312E3084
:105518005C6C69627261726965735C576972655C1B
:105528007372635C576972652E63707000000000C7
:1055380000000000000000007D0B0008C70B0008F9
:10554800D50900086B0C0008D9090008E109000812
:10555800FB090008A14B0008CB4B0008433A5C55F7
:10556800736572735C5033345C417070446174616C
:105578005C4C6F63616C5C41726475696E6F313548
:105588005C7061636B616765735C53544D696372EA
:105598006F656C656374726F6E6963735C68617262
:1055A80064776172655C73746D33325C322E312EB0
:1055B800305C6C69627261726965735C57697265A7
:1055C8005C7372635C7574696C6974795C7477690F
:1055D8002E630002030405060708090A0B0C0D0ECA
:1055E8000F1010000102030405060708090A0B0C36
:1055F8000D0E0F1000433A5C55736572735C50339F
:10560800345C417070446174615C4C6F63616C5CC4
:1056180041726475696E6F31355C7061636B616787
:1056280065735C53544D6963726F656C656374721E
:105638006F6E6963735C68617264776172655C73CD
:10564800746D33325C322E312E305C6C696272615B
:10565800726965735C537263577261707065725CCE
:105668007372635C73746D33325C70696E6D6170F4
:105678002E63000001010000020200000404000083
:105688000808000010100000202000004040000022
:1056980080800000010001040200020404000404E8
:1056A80008000804100010042000200440004004F2
:1056B80080008004000000000000000001020304D4
:1056C80006070809000000000102030454494D3A86
:1056D80020556E6B6E6F776E2074696D6572204908
:1056E80052516E0004000000007400400380000066
:1056F800050000000074004003000100FFFFFFFFE9
:1057080000000000000000001600000000540040E7
:105718000A04000018000000005400400A030000BA
:105728001A000000005800400A000000FFFFFFFFB9
:1057380000000000000000001700000000540040B6
:105748000A04000019000000005400400A03000089
:105758001B000000005800400A000000FFFFFFFF88
:1057680000000000000000000000000000000040F1
:1057780012800000000100000000004012900000AC
:1057880001000000000000401212010001010000A9
:10579800000000401210010002000000000000405C
:1057A8001292010002010000000000401291010065
:1057B800020200000040014012A6000003000000A1
:1057C8000000004012120200030100000000004027
:1057D80012110200030200000040014012260100DD
:1057E80006000000000400401295000006010000B9
:1057F8000044014012A7000007000000002C0140EF
:10580800128D10000701000000040040121501006D
:10581800070200000048014012A90000080000002B
:10582800002C0140128E000008010000002C0140ED
:10583800128D000009000000002C0140120E01002A
:1058480009010000002C0140120D01000A000000AF
:10585800002C0140128E01000A010000002C0140BA
:10586800128D01000B000000002C0140120E0200F6
:105878000B010000002C0140120D02000F00000077
:1058880000000040129100000F01000000000040DD
:10589800128F000010000000002C0140120D1100B2
:1058A80010010000000400401295010010020000E1
:1058B800000400401294010011000000002C014077
:1058C800128D1100110100000004004012150200A1
:1058D800110200000004004012140200130000002E
:1058E80000000040121101001301000000000040F8
:1058F800120F010014000000000400401294000080
:1059080015000000000400401214010016000000F9
:1059180000080040129700001601000000440140F2
:105928001280100017000000000800401217010044
:105938001701000000480140128010001800000004
:1059480000080040129701001801000000440140BF
:1059580012A80000190000000008004012170200F9
:10596800190100000048014012AA00001A000000B6
:1059780000000040129001001A01000000000040E1
:10598800128F01001B0000000000004012100200EE
:105998001B01000000000040120F02001D00000063
:1059A800002C0140128E10001E000000002C014047
:1059B800120E11001E0100000040014012A5000057
:1059C8001F000000002C0140128E11001F01000072
:1059D80000400140128010001F02000000400140FA
:1059E80012250100FFFFFFFF00000000000000007B
:1059F8000300000000440040100800000A000000F6
:105A0800003801401006000017000000003801406F
:105A1800100500001B0000000048004010000000B6
:105A2800FFFFFFFF00000000000000000200000070
:105A3800004400401208000009000000003801403E
:105A48001206000016000000003801401205000090
:105A58001A0000000048004012000000FFFFFFFF8E
:105A68000000000000000000433A5C557365727343
:105A78005C5033345C417070446174615C4C6F639A
:105A8800616C5C41726475696E6F31355C7061631D
:105A98006B616765735C53544D6963726F656C65C0
:105AA8006374726F6E6963735C6861726477617244
:105AB800655C73746D33325C322E312E305C7661E6
:105AC8007269616E74735C53544D33324631787821
